:100000000C942A000C941D030C9447000C94470098
:100010000C9447000C9447000C9447000C94470044
:100020000C9447000C9447000C946C030C949503BB
:100030000C9447000C9447000C9447000C94470024
:100040000C9447000C9447000C9447000C94470014
:100050000C94470011241FBECFE5D8E0DEBFCDBF12
:1000600010E0A0E6B0E0E0E8F7E002C005900D92F5
:10007000A236B107D9F720E0A2E6B0E001C01D9298
:10008000AD36B207E1F70E9467010C94BE030C94F1
:10009000000080916000813041F462E080E00E94C5
:1000A000530160E081E00E94530180916300813040
:1000B00041F461E080E00E945A0161E081E00E9429
:1000C0005A0180916200813059F4809164009091CE
:1000D0006500823E944021F4109266001092620006
:1000E0008091640090916500823E24E09207D9F4EB
:1000F00020916600211117C01092600062E080E03C
:100100000E94600160E081E00E94600181E08093D4
:1001100063001092650010926400809166008F5F0A
:100120008093660061C0823E24E0920701F5209131
:1001300066002130E1F41092630061E080E00E94EB
:10014000600161E081E00E94600160E080E00E9467
:10015000530162E081E00E94530110926500109209
:100160006400809166008F5F809366003DC0823E90
:1001700024E09207C9F4209166002230A9F460E0DF
:1001800080E00E94600162E081E00E94600181E005
:100190008093630010926500109264008091660065
:1001A0008F5F8093660020C0823E9440E9F4809186
:1001B00066008330C9F41092630061E080E00E9421
:1001C000600161E081E00E94600162E080E00E94E5
:1001D000530160E081E00E9453011092650010928B
:1001E000640081E0809362008091640090916500DA
:1001F0000196909365008093640080916000813047
:1002000031F080916600843020F084E0089584E02D
:10021000089582E0089580916600833089F080918E
:10022000600081110FC082E08093660082EE94E04E
:1002300090936500809364000E94490083E00895D4
:1002400085E0089585E008956FEF80E00E946C01DD
:100250006FEF81E00E946C0140E063E082E00E9469
:100260007E010E944A030E9446030E940C038AEF0B
:100270000E94630341E063E082E00E94070241E6DE
:1002800050E063E082E00E94900280916100811161
:1002900081E0089589E490E00E9465038BE091E09D
:1002A0000E9416030895982F862F41E0692F0E941F
:1002B00007020895982F862F692F0E94CE02089575
:1002C000982F862F40E0692F0E94070208950E9410
:1002D00024010E944A01FFCF6F3F79F4813041F041
:1002E00028F0823039F0833039F008956ABB0895E0
:1002F00067BB089564BB089561BB0895883008F01A
:1003000085C0613039F138F0623009F442C06330A1
:1003100009F45EC00895413069F44AB321E030E049
:10032000B90102C0660F771F8A95E2F7CB01842BD3
:100330008ABB089541116AC04AB321E030E0B90197
:1003400002C0660F771F8A95E2F7CB018095842360
:100350008ABB0895413069F447B321E030E0B90128
:1003600002C0660F771F8A95E2F7CB01842B87BB0B
:10037000089541114BC047B321E030E0B90102C0FC
:10038000660F771F8A95E2F7CB018095842387BBA0
:100390000895413069F444B321E030E0B90102C06E
:1003A000660F771F8A95E2F7CB01842B84BB0895F3
:1003B00041112CC044B321E030E0B90102C0660F06
:1003C000771F8A95E2F7CB018095842384BB08953B
:1003D000413069F441B321E030E0B90102C0660F59
:1003E000771F8A95E2F7CB01842B81BB08954111D9
:1003F0000DC041B321E030E0B90102C0660F771FA4
:100400008A95E2F7CB018095842381BB08958830DB
:1004100008F085C0613039F138F0623009F442C02B
:10042000633009F45EC00895413069F44BB321E0B4
:1004300030E0B90102C0660F771F8A95E2F7CB0161
:10044000842B8BBB089541116AC04BB321E030E08F
:10045000B90102C0660F771F8A95E2F7CB0180953C
:1004600084238BBB0895413069F448B321E030E028
:10047000B90102C0660F771F8A95E2F7CB01842B82
:1004800088BB089541114BC048B321E030E0B90169
:1004900002C0660F771F8A95E2F7CB01809584230F
:1004A00088BB0895413069F445B321E030E0B901DB
:1004B00002C0660F771F8A95E2F7CB01842B85BBBC
:1004C000089541112CC045B321E030E0B90102C0CC
:1004D000660F771F8A95E2F7CB018095842385BB51
:1004E0000895413069F442B321E030E0B90102C01F
:1004F000660F771F8A95E2F7CB01842B82BB0895A4
:1005000041110DC042B321E030E0B90102C0660FD5
:10051000771F8A95E2F7CB018095842382BB0895EB
:100520008830D8F5613099F028F06230E9F0633016
:1005300041F1089529B330E0B90102C0759567957E
:100540008A95E2F7CB018170FA018083089526B382
:1005500030E0B90102C0759567958A95E2F7CB0145
:100560008170FA018083089523B330E0B90102C09D
:10057000759567958A95E2F7CB018170FA018083C2
:10058000089520B330E0B90102C0759567958A954A
:10059000E2F7CB018170FA01808308958830D8F5A5
:1005A000613099F028F06230E9F0633041F108954C
:1005B0004BB321E030E0B90102C0660F771F8A9586
:1005C000E2F7CB0184278BBB089548B321E030E0EC
:1005D000B90102C0660F771F8A95E2F7CB01842725
:1005E00088BB089545B321E030E0B90102C0660F31
:1005F000771F8A95E2F7CB01842785BB089542B324
:1006000021E030E0B90102C0660F771F8A95E2F75A
:10061000CB01842782BB089585B7816085BF85B7EC
:10062000826085BF8BB780648BBF0895009721F0EF
:10063000909368008093670008951F920F920FB601
:100640000F9211242F933F934F935F936F937F9358
:100650008F939F93AF93BF93EF93FF93E0916700C6
:10066000F0916800309709F00995FF91EF91BF91E3
:10067000AF919F918F917F916F915F914F913F913A
:100680002F910F900FBE0F901F9018958FB7806815
:100690008FBF089583B7886083BF83B78F7B83BF85
:1006A00083B7806183BF83B7806283BF89B782606D
:1006B00089BF83B78E7F83BF83B78D7F83BF83B7A7
:1006C000846083BF08958CBF0895009721F09093B4
:1006D0006A008093690008951F920F920FB60F92DF
:1006E00011242F933F934F935F936F937F938F9337
:1006F0009F93AF93BF93EF93FF93E0916900F091C5
:100700006A00309709F00995FF91EF91BF91AF9181
:100710009F918F917F916F915F914F913F912F9119
:100720000F900FBE0F901F9018951F920F920FB64B
:100730000F9211242F933F934F935F936F937F9367
:100740008F939F93AF93BF93EF93FF93E0916B00D1
:10075000F0916C00309709F00995FF91EF91BF91EE
:10076000AF919F918F917F916F915F914F913F9149
:100770002F910F900FBE0F901F901895F894FFCFF8
:02078000010175
:00000001FF
